{
  "_format": "hh-sol-artifact-1",
  "contractName": "SpotifyPortal",
  "sourceName": "contracts/SpotifyPortal.sol",
  "abi": [
    {
      "inputs": [],
      "stateMutability": "payable",
      "type": "constructor"
    },
    {
      "anonymous": false,
      "inputs": [
        {
          "indexed": true,
          "internalType": "address",
          "name": "from",
          "type": "address"
        },
        {
          "indexed": false,
          "internalType": "uint256",
          "name": "timestamp",
          "type": "uint256"
        },
        {
          "indexed": false,
          "internalType": "string",
          "name": "submittedBy",
          "type": "string"
        },
        {
          "indexed": false,
          "internalType": "string",
          "name": "url",
          "type": "string"
        }
      ],
      "name": "newSong",
      "type": "event"
    },
    {
      "inputs": [
        {
          "internalType": "string",
          "name": "_submittedBy",
          "type": "string"
        },
        {
          "internalType": "string",
          "name": "_url",
          "type": "string"
        }
      ],
      "name": "addSong",
      "outputs": [],
      "stateMutability": "nonpayable",
      "type": "function"
    },
    {
      "inputs": [],
      "name": "getAllSongs",
      "outputs": [
        {
          "components": [
            {
              "internalType": "address",
              "name": "addr",
              "type": "address"
            },
            {
              "internalType": "uint256",
              "name": "timestamp",
              "type": "uint256"
            },
            {
              "internalType": "string",
              "name": "submittedBy",
              "type": "string"
            },
            {
              "internalType": "string",
              "name": "url",
              "type": "string"
            }
          ],
          "internalType": "struct SpotifyPortal.Song[]",
          "name": "",
          "type": "tuple[]"
        }
      ],
      "stateMutability": "view",
      "type": "function"
    },
    {
      "inputs": [],
      "name": "getTotalSongs",
      "outputs": [
        {
          "internalType": "uint256",
          "name": "",
          "type": "uint256"
        }
      ],
      "stateMutability": "view",
      "type": "function"
    },
    {
      "inputs": [
        {
          "internalType": "address",
          "name": "",
          "type": "address"
        }
      ],
      "name": "mostRecentSender",
      "outputs": [
        {
          "internalType": "uint256",
          "name": "",
          "type": "uint256"
        }
      ],
      "stateMutability": "view",
      "type": "function"
    }
  ],
  "bytecode": "0x60806040526200004f6040518060400160405280601681526020017f436f6e737472756374696f6e20636f6d706c65746521000000000000000000008152506200005560201b620005311760201c565b620001e9565b620000f5816040516024016200006c919062000162565b6040516020818303038152906040527f41304fac000000000000000000000000000000000000000000000000000000007bffffffffffffffffffffffffffffffffffffffffffffffffffffffff19166020820180517bffffffffffffffffffffffffffffffffffffffffffffffffffffffff8381831617835250505050620000f860201b60201c565b50565b60008151905060006a636f6e736f6c652e6c6f679050602083016000808483855afa5050505050565b60006200012e8262000186565b6200013a818562000191565b93506200014c818560208601620001a2565b6200015781620001d8565b840191505092915050565b600060208201905081810360008301526200017e818462000121565b905092915050565b600081519050919050565b600082825260208201905092915050565b60005b83811015620001c2578082015181840152602081019050620001a5565b83811115620001d2576000848401525b50505050565b6000601f19601f8301169050919050565b610e5d80620001f96000396000f3fe608060405234801561001057600080fd5b506004361061004c5760003560e01c806329ef6862146100515780638c9db2b41461006f578063955de0fd1461008d578063d6d20aca146100a9575b600080fd5b6100596100d9565b6040516100669190610a0e565b60405180910390f35b6100776102bc565b6040516100849190610acc565b60405180910390f35b6100a760048036038101906100a291906107de565b6102c5565b005b6100c360048036038101906100be91906107b5565b610519565b6040516100d09190610acc565b60405180910390f35b60606001805480602002602001604051908101604052809291908181526020016000905b828210156102b357838290600052602060002090600402016040518060800160405290816000820160009054906101000a900473ffffffffffffffffffffffffffffffffffffffff1673ffffffffffffffffffffffffffffffffffffffff1673ffffffffffffffffffffffffffffffffffffffff1681526020016001820154815260200160028201805461019090610cbc565b80601f01602080910402602001604051908101604052809291908181526020018280546101bc90610cbc565b80156102095780601f106101de57610100808354040283529160200191610209565b820191906000526020600020905b8154815290600101906020018083116101ec57829003601f168201915b5050505050815260200160038201805461022290610cbc565b80601f016020809104026020016040519081016040528092919081815260200182805461024e90610cbc565b801561029b5780601f106102705761010080835404028352916020019161029b565b820191906000526020600020905b81548152906001019060200180831161027e57829003601f168201915b505050505081525050815260200190600101906100fd565b50505050905090565b60008054905090565b42610384600260003373ffffffffffffffffffffffffffffffffffffffff1673ffffffffffffffffffffffffffffffffffffffff168152602001908152602001600020546103139190610be8565b10610353576040517f08c379a000000000000000000000000000000000000000000000000000000000815260040161034a90610aac565b60405180910390fd5b42600260003373ffffffffffffffffffffffffffffffffffffffff1673ffffffffffffffffffffffffffffffffffffffff1681526020019081526020016000208190555060016000808282546103a99190610be8565b925050819055506103d46040518060600160405280602a8152602001610dfe602a91398333846105ca565b600160405180608001604052803373ffffffffffffffffffffffffffffffffffffffff16815260200142815260200184815260200183815250908060018154018082558091505060019003906000526020600020906004020160009091909190915060008201518160000160006101000a81548173ffffffffffffffffffffffffffffffffffffffff021916908373ffffffffffffffffffffffffffffffffffffffff1602179055506020820151816001015560408201518160020190805190602001906104a3929190610695565b5060608201518160030190805190602001906104c0929190610695565b5050503373ffffffffffffffffffffffffffffffffffffffff167fbcbe038d249e1b26ec2c0e531f2134ca30b75651db3752663758967f3ae1458042848460405161050d93929190610ae7565b60405180910390a25050565b60026020528060005260406000206000915090505481565b6105c7816040516024016105459190610a30565b6040516020818303038152906040527f41304fac000000000000000000000000000000000000000000000000000000007bffffffffffffffffffffffffffffffffffffffffffffffffffffffff19166020820180517bffffffffffffffffffffffffffffffffffffffffffffffffffffffff838183161783525050505061066c565b50565b610666848484846040516024016105e49493929190610a52565b6040516020818303038152906040527feb1bff80000000000000000000000000000000000000000000000000000000007bffffffffffffffffffffffffffffffffffffffffffffffffffffffff19166020820180517bffffffffffffffffffffffffffffffffffffffffffffffffffffffff838183161783525050505061066c565b50505050565b60008151905060006a636f6e736f6c652e6c6f679050602083016000808483855afa5050505050565b8280546106a190610cbc565b90600052602060002090601f0160209004810192826106c3576000855561070a565b82601f106106dc57805160ff191683800117855561070a565b8280016001018555821561070a579182015b828111156107095782518255916020019190600101906106ee565b5b509050610717919061071b565b5090565b5b8082111561073457600081600090555060010161071c565b5090565b600061074b61074684610b51565b610b2c565b90508281526020810184848401111561076357600080fd5b61076e848285610c7a565b509392505050565b60008135905061078581610de6565b92915050565b600082601f83011261079c57600080fd5b81356107ac848260208601610738565b91505092915050565b6000602082840312156107c757600080fd5b60006107d584828501610776565b91505092915050565b600080604083850312156107f157600080fd5b600083013567ffffffffffffffff81111561080b57600080fd5b6108178582860161078b565b925050602083013567ffffffffffffffff81111561083457600080fd5b6108408582860161078b565b9150509250929050565b60006108568383610986565b905092915050565b61086781610c3e565b82525050565b61087681610c3e565b82525050565b600061088782610b92565b6108918185610bb5565b9350836020820285016108a385610b82565b8060005b858110156108df57848403895281516108c0858261084a565b94506108cb83610ba8565b925060208a019950506001810190506108a7565b50829750879550505050505092915050565b60006108fc82610b9d565b6109068185610bc6565b9350610916818560208601610c89565b61091f81610dac565b840191505092915050565b600061093582610b9d565b61093f8185610bd7565b935061094f818560208601610c89565b61095881610dac565b840191505092915050565b6000610970600883610bd7565b915061097b82610dbd565b602082019050919050565b600060808301600083015161099e600086018261085e565b5060208301516109b160208601826109f0565b50604083015184820360408601526109c982826108f1565b915050606083015184820360608601526109e382826108f1565b9150508091505092915050565b6109f981610c70565b82525050565b610a0881610c70565b82525050565b60006020820190508181036000830152610a28818461087c565b905092915050565b60006020820190508181036000830152610a4a818461092a565b905092915050565b60006080820190508181036000830152610a6c818761092a565b90508181036020830152610a80818661092a565b9050610a8f604083018561086d565b8181036060830152610aa1818461092a565b905095945050505050565b60006020820190508181036000830152610ac581610963565b9050919050565b6000602082019050610ae160008301846109ff565b92915050565b6000606082019050610afc60008301866109ff565b8181036020830152610b0e818561092a565b90508181036040830152610b22818461092a565b9050949350505050565b6000610b36610b47565b9050610b428282610cee565b919050565b6000604051905090565b600067ffffffffffffffff821115610b6c57610b6b610d7d565b5b610b7582610dac565b9050602081019050919050565b6000819050602082019050919050565b600081519050919050565b600081519050919050565b6000602082019050919050565b600082825260208201905092915050565b600082825260208201905092915050565b600082825260208201905092915050565b6000610bf382610c70565b9150610bfe83610c70565b9250827fffffffffffffffffffffffffffffffffffffffffffffffffffffffffffffffff03821115610c3357610c32610d1f565b5b828201905092915050565b6000610c4982610c50565b9050919050565b600073ffffffffffffffffffffffffffffffffffffffff82169050919050565b6000819050919050565b82818337600083830152505050565b60005b83811015610ca7578082015181840152602081019050610c8c565b83811115610cb6576000848401525b50505050565b60006002820490506001821680610cd457607f821691505b60208210811415610ce857610ce7610d4e565b5b50919050565b610cf782610dac565b810181811067ffffffffffffffff82111715610d1657610d15610d7d565b5b80604052505050565b7f4e487b7100000000000000000000000000000000000000000000000000000000600052601160045260246000fd5b7f4e487b7100000000000000000000000000000000000000000000000000000000600052602260045260246000fd5b7f4e487b7100000000000000000000000000000000000000000000000000000000600052604160045260246000fd5b6000601f19601f8301169050919050565b7f576169742031356d000000000000000000000000000000000000000000000000600082015250565b610def81610c3e565b8114610dfa57600080fd5b5056fe2573206174202573206163636f756e742073656e74207573206120736f6e672061742025732075726c21a2646970667358221220fa47d21706b6843cce6934fb909337e30a3f7065a12bd64e2634585946ad40e664736f6c63430008040033",
  "linkReferences": {},
  "deployedLinkReferences": {}
}